:100000000C946F000C9497000C9497000C9497003C
:100010000C9497000C9497000C9497000C94970004
:100020000C9497000C9497000C9497000C949700F4
:100030000C9497000C9497000C9497000C949700E4
:100040000C9453040C9497000C9497000C94970014
:100050000C9497000C9497000C9497000C949700C4
:100060000C9497000C9497000A030C03C902CB026E
:10007000040307030703070307030403CB02CD02AE
:10008000D002000000070002010000030406000087
:10009000000000000000010204081020408001025E
:1000A00004081020010204081020040404040404BD
:1000B000040402020202020203030303030300001A
:1000C0000000230026002900000000002500280071
:1000D0002B0000000000240027002A004004112407
:1000E0001FBECFEFD8E0DEBFCDBF11E0A0E0B1E092
:1000F000E2E2FFE002C005900D92A235B107D9F708
:1001000011E0A2E5B1E001C01D92AB39B107E1F702
:1001100010E0CEEDD0E004C02297FE010E940C0753
:10012000CC3DD107C9F70E94BC060C948F070C94F4
:100130000000CF93DF93EC0160E08E810E948D057B
:1001400081E090E00E94E60461E08E810E948D05CE
:1001500081E090E00E94E60460E08E810E948D05BF
:1001600084E690E0DF91CF910C94E604EF92FF9249
:100170000F931F93CF93DF938C01C0E0D0E0E62E66
:10018000F12CB7010C2E02C0759567950A94E2F721
:100190006170F801EC0FFD1F87810E948D0521968B
:1001A000C430D10571F7C801DF91CF911F910F9134
:1001B000FF90EF900C949900EF92FF920F931F9392
:1001C000CF93DF938C01C0E0D0E0E62EF12CB70195
:1001D0000C2E02C0759567950A94E2F76170F801DC
:1001E000EC0FFD1F87810E948D052196C830D10537
:1001F00071F7C801DF91CF911F910F91FF90EF90A0
:100200000C9499001F93CF93DF93EC01162F642F6A
:100210008C810E948D058D818F3F19F060E00E94D6
:100220008D058F85612F84FF06C0CE01DF91CF91B0
:100230001F910C94DC0070E084E0759567958A95B9
:10024000E1F7CE010E94B600612FCE01DF91CF9180
:100250001F910C94B60040E00C94020161E00E94F2
:100260002B0180ED97E00C94E604443008F043E065
:10027000FC012389421710F04FEF420FFC01E40FFD
:10028000F11D2489260F2068622F0C942B01FC019C
:100290006089262F2460208B6C600C942B010F93B7
:1002A0001F93CF93DF93EC01423018F08F85886065
:1002B0008F874B8B1C8A80E48D8B6E8B70E0605C2B
:1002C0007F4F6F8B222329F0413019F48F85846092
:1002D0008F8761E08C810E9454058D818F3F19F0DA
:1002E00061E00E94540561E08E810E94540500E0A7
:1002F00010E08F8584FF03C088E090E002C084E0B6
:1003000090E00817190754F4FE01E00FF11F61E0B7
:1003100087810E9454050F5F1F4FEBCF80E593EC60
:100320000E94E60460E08C810E948D0560E08E8171
:100330000E948D058D818F3F19F060E00E948D0530
:100340006F8564FD1DC063E0CE010E94B60084E9A4
:1003500091E10E94E60463E0CE010E94B60084E9C8
:1003600091E10E94E60463E0CE010E94B60086E9B6
:1003700090E00E94E60462E0CE010E94B60016C042
:100380006062CE010E942B0184E991E10E94E604A3
:100390006F856062CE010E942B0186E990E00E9489
:1003A000E6046F856062CE010E942B016F8560625A
:1003B000CE010E942B0184E0888BCE010E94470170
:1003C000CE010E942E0182E0898B66E0CE01DF9192
:1003D000CF911F910F910C942B01CF92EF920F931D
:1003E000FC011382128282E491E091838083648312
:1003F0008FEF8583468327830087E186C286138635
:10040000148615861686178620E041E060E1CF014C
:100410000F91EF90CF900C944F01CF92DF92EF921B
:10042000FF920F931F93CF93DF9300D0CDB7DEB72A
:100430008C01677088E0689FB00111246064C80176
:1004400049835A830E942B014981C42E5A81D52E9B
:10045000E12CF12CD6016D916D01D801ED91FC914B
:100460000190F081E02DC8010995BFEFEB1AFB0A5E
:10047000E8E0EE16F10471F70F900F90DF91CF9145
:100480001F910F91FF90EF90DF90CF90089541E082
:100490000E94020181E090E008951F93CF93DF93C3
:1004A000C4E0D1E011E0AE01612F8AE791E00E9443
:1004B0000D021F5F28961830B1F7E9E6F1E0A8E5D4
:1004C000B1E080E281938D9391E0E937F907D1F7AC
:1004D000DF91CF911F9108950E944D0220E042E0EC
:1004E00060E18AE791E00E944F0162E087E00C94AE
:1004F0005405FC01DC0180E090E045E050E22D91E4
:100500008F30910511F4362F01C03C912630A9F0AF
:100510001CF4253059F014C0273089F0203281F4C2
:10052000353011F426E007C020E205C0303211F466
:1005300027E001C025E0208303C0408301C0508331
:100540000196319680319105D1F608956F927F9290
:100550008F929F92AF92BF92CF92DF92EF92FF92D3
:100560000F931F93CF93DF931F92CDB7DEB78B010D
:100570007A016901DB011196AC90DA0111969C9029
:1005800090E08D30910578F4FC01EC5CFF4F0C9409
:100590000A07E2E011C0E3E00FC0E0E281E004C03E
:1005A000E0E282E001C080E0D80111968C93BB2488
:1005B000B394B0E2AB1201C0B12CE03249F0D701E4
:1005C0001196EC9381E0B0E29B1201C080E0B82A62
:1005D000E0E1CE16E7E2DE0678F4F8EECF16F3E0BF
:1005E000DF0660F484E6C816D10450F49AE0C91618
:1005F000D10440F022E012C025E010C024E00EC07B
:1006000023E00CC021E00AC0E4E08EE2CDCFE0E2BE
:1006100083E0CACFE0E2D0CFE1E0CECFD801509660
:100620001C92F701108A80E1682E712C621A710801
:10063000600E711ED3018C901C9240E060E08AE74E
:1006400091E029830E943501B8018AE791E00E9478
:100650002A06F301808241E060E08AE791E00E948F
:100660003501B7018AE791E00E942A0660E12981FD
:10067000621B40E08AE791E00E9435014AE050E0C9
:10068000B6018AE791E00E949206D8011196AC92D9
:10069000F70191828B2D0F90DF91CF911F910F91D8
:1006A000FF90EF90DF90CF90BF90AF909F908F9092
:1006B0007F906F900895CF9387E00E94C305892BA8
:1006C00019F481E08093570180915601811145C052
:1006D000209154013091550193E0369527959A95D4
:1006E000E1F780915301811103C080913D0101C068
:1006F00080E048E551E069E671E00E94A602809141
:100700005301882361F040E060E08AE791E00E94B5
:10071000350166E471E08AE791E00E942A066AEFFB
:1007200070E080E090E00E94C00480915301C1E03D
:100730008C278093530180915701882309F49EC030
:100740000E944D02C0933D01C09356011092570183
:10075000109255011092540191C0C0915201C130C4
:1007600011F465E001C060E288E591E00E94790241
:10077000C23011F465E001C060E289E691E00E94B8
:10078000790280913C01815080933C01811124C009
:10079000C11117C063E070E080E090E00E9498060D
:1007A000672B682B692B11F482E001C081E08093F4
:1007B00052016AE070E080E090E00E9498066E5F6F
:1007C00009C0109252016AE070E080E090E00E945F
:1007D0009806665F60933C0180915701882349F039
:1007E00080913D01833018F483E080933D011092A5
:1007F0005701209154013091550183E0369527959A
:100800008A95E1F748E551E069E671E080913D01A4
:100810000E94A602882319F01092560128C08091E8
:100820003D01982F977F923011F481E015C09BEF26
:10083000980F933030F490915901903261F08BE031
:100840000BC08B3040F090915901903211F487E049
:1008500003C08C30A1F38F5F80933D0180915401E0
:10086000909155010196909355018093540164E64F
:1008700070E080E090E0CF910C94C004CF91089597
:10088000CF92EF920F938DE0C82E9CE0E92E0BE003
:100890002AE049E068E08AE791E00E94ED010F91CB
:1008A000EF90CF9008951F920F920FB60F921124E0
:1008B0002F933F938F939F93AF93BF938091930117
:1008C00090919401A0919501B0919601309192017F
:1008D00023E0230F2D3720F40196A11DB11D05C083
:1008E00026E8230F0296A11DB11D2093920180934B
:1008F000930190939401A0939501B09396018091F8
:10090000970190919801A0919901B0919A01019657
:10091000A11DB11D8093970190939801A093990117
:10092000B0939A01BF91AF919F918F913F912F9179
:100930000F900FBE0F901F9018953FB7F8948091BD
:10094000970190919801A0919901B0919A0126B5D3
:10095000A89B05C02F3F19F00196A11DB11D3FBFF7
:100960006627782F892F9A2F620F711D811D911D87
:1009700042E0660F771F881F991F4A95D1F70895A7
:10098000CF92DF92EF92FF92CF93DF936B017C01C6
:100990000E949D04EB01C114D104E104F10479F03B
:1009A0000E949D046C1B7D0B683E7340A0F381E0A8
:1009B000C81AD108E108F108C851DC4FECCFDF912B
:1009C000CF91FF90EF90DF90CF900895019739F08D
:1009D000880F991F880F991F02970197F1F70895C3
:1009E000789484B5826084BD84B5816084BD85B50A
:1009F000826085BD85B5816085BDEEE6F0E08081D1
:100A000081608083E1E8F0E01082808182608083F1
:100A1000808181608083E0E8F0E080818160808374
:100A2000E1EBF0E0808184608083E0EBF0E08081A6
:100A300081608083EAE7F0E0808184608083808148
:100A400082608083808181608083808180688083F0
:100A50001092C1000895833081F028F4813099F01C
:100A60008230A1F008958630A9F08730B9F0843043
:100A7000D1F4809180008F7D03C0809180008F77BA
:100A800080938000089584B58F7702C084B58F7DF0
:100A900084BD08958091B0008F7703C08091B0002D
:100AA0008F7D8093B0000895CF93DF9390E0FC0199
:100AB000EA56FF4F2491FC01E655FF4F84918823AD
:100AC00049F190E0880F991FFC01EE52FF4FA5916C
:100AD000B49188539F4FFC01C591D4919FB7611188
:100AE00008C0F8948C91209582238C93888182236E
:100AF0000AC0623051F4F8948C91322F30958323E0
:100B00008C938881822B888304C0F8948C91822BEB
:100B10008C939FBFDF91CF9108950F931F93CF9335
:100B2000DF931F92CDB7DEB7282F30E0F901EE57E3
:100B3000FF4F8491F901EA56FF4F1491F901E655F0
:100B4000FF4F04910023C9F0882321F069830E949C
:100B50002B056981E02FF0E0EE0FFF1FE853FF4FF8
:100B6000A591B4919FB7F8948C91611103C0109531
:100B7000812301C0812B8C939FBF0F90DF91CF9178
:100B80001F910F910895CF93DF93282F30E0F90143
:100B9000EE57FF4F8491F901EA56FF4FD491F901C6
:100BA000E655FF4FC491CC2391F081110E942B0593
:100BB000EC2FF0E0EE0FFF1FE254FF4FA591B49130
:100BC0002C912D2381E090E021F480E002C080E0B0
:100BD00090E0DF91CF910895CF92DF92EF92FF9254
:100BE0000F931F93CF93DF936C017A01EB01E60E15
:100BF000F71E00E010E0CE15DF0561F06991D60127
:100C0000ED91FC910190F081E02DC6010995080F4E
:100C1000191FF1CFC801DF91CF911F910F91FF9064
:100C2000EF90DF90CF9008956115710581F0DB01A1
:100C30000D900020E9F7AD0141505109461B570BBB
:100C4000DC01ED91FC910280F381E02D099480E0BC
:100C500090E008950C9414068F929F92AF92BF92E9
:100C6000CF92DF92EF92FF920F931F93CF93DF9378
:100C7000CDB7DEB7A1970FB6F894DEBF0FBECDBFDC
:100C80007C01C42EE52FCB01D22E19A221E02D1517
:100C900010F02AE0D22E8E010F5D1F4F8D2C912C6B
:100CA000A12CB12C6C2D7E2FA50194010E94C906A8
:100CB0008C2DD29E80191124015011098A3014F410
:100CC000805D01C0895CF8018083211531054105F3
:100CD000510521F0C22EE32FCA01E4CFB801C701AC
:100CE0000E941406A1960FB6F894DEBF0FBECDBFCA
:100CF000DF91CF911F910F91FF90EF90DF90CF90F8
:100D0000BF90AF909F908F9008952115310541F4C9
:100D1000DC01ED91FC910190F081E02D642F0994AC
:100D20000C942C069A01AB0160E070E00C948506EF
:100D3000CF93DF9300D000D0CDB7DEB79B01AC01DD
:100D4000611571058105910569F069833A834B83CB
:100D50005C830E94790729813A814B815C810E94E2
:100D6000EB0603C060E070E0CB010F900F900F9096
:100D70000F90DF91CF9108950E94F0040E946C02C1
:100D8000C0E0D0E00E945B032097E1F30E940000E6
:100D9000F9CFA1E21A2EAA1BBB1BFD010DC0AA1F91
:100DA000BB1FEE1FFF1FA217B307E407F50720F0D4
:100DB000A21BB30BE40BF50B661F771F881F991F4F
:100DC0001A9469F760957095809590959B01AC0198
:100DD000BD01CF010895052E97FB1EF400940E94DB
:100DE000020757FD07D00E94C90607FC03D04EF446
:100DF0000C94020750954095309521953F4F4F4FE9
:100E00005F4F089590958095709561957F4F8F4FB6
:100E10009F4F0895EE0FFF1F0590F491E02D099468
:100E20000E941B07A59F900DB49F900DA49F800D5D
:100E3000911D11240895A29FB001B39FC001A39FEB
:100E4000700D811D1124911DB29F700D811D112403
:100E5000911D08958F929F92AF92BF92CF92DF9291
:100E6000EF92FF92CF93DF93EC01688179818A81C1
:100E70009B81611571058105910521F464E279ED8D
:100E80008BE597E02DE133EF41E050E00E94EB0667
:100E900049015A019B01AC01A7EAB1E40E94100785
:100EA0006B017C01ACEEB4EFA50194010E948A07AE
:100EB000C60ED71EE81EF91EF7FE06C081E0C81A4E
:100EC000D108E10880E8F80AC882D982EA82FB8268
:100ED000C701B6019F77DF91CF91FF90EF90DF9030
:100EE000CF90BF90AF909F908F9008950E942A0757
:100EF000089580E091E00E942A0708956093000120
:100F00007093010180930201909303010895B7FF4C
:100F10000C9410070E941007821B930B0895F894FD
:020F2000FFCF01
:100F2200010000000C0C000E1C0C1A130C0C000C1F
:100F32000C0C0C0E0C0C001E0D1F10001E0D1F10B1
:100F4200000000001F1F1F1F1F1F1F1F030303039B
:100F520003030303181818181818181801010000C1
:100F620000004702EC05507265737320537461727E
:020F7200740009
:00000001FF
